{
  "contractName": "Faucet",
  "abi": [
    {
      "inputs": [
        {
          "internalType": "address",
          "name": "",
          "type": "address"
        }
      ],
      "name": "accounts",
      "outputs": [
        {
          "internalType": "string",
          "name": "name",
          "type": "string"
        },
        {
          "internalType": "string",
          "name": "sex",
          "type": "string"
        },
        {
          "internalType": "string",
          "name": "dateOfBirth",
          "type": "string"
        },
        {
          "internalType": "string",
          "name": "phoneNumber",
          "type": "string"
        },
        {
          "internalType": "string",
          "name": "email",
          "type": "string"
        }
      ],
      "stateMutability": "view",
      "type": "function"
    },
    {
      "inputs": [
        {
          "internalType": "string",
          "name": "_name",
          "type": "string"
        },
        {
          "internalType": "string",
          "name": "_sex",
          "type": "string"
        },
        {
          "internalType": "string",
          "name": "_dateOfBirth",
          "type": "string"
        },
        {
          "internalType": "string",
          "name": "_phoneNumber",
          "type": "string"
        },
        {
          "internalType": "string",
          "name": "_email",
          "type": "string"
        }
      ],
      "name": "setAccountInfo",
      "outputs": [],
      "stateMutability": "nonpayable",
      "type": "function"
    },
    {
      "inputs": [],
      "name": "getAccountInfo",
      "outputs": [
        {
          "internalType": "string",
          "name": "",
          "type": "string"
        },
        {
          "internalType": "string",
          "name": "",
          "type": "string"
        },
        {
          "internalType": "string",
          "name": "",
          "type": "string"
        },
        {
          "internalType": "string",
          "name": "",
          "type": "string"
        },
        {
          "internalType": "string",
          "name": "",
          "type": "string"
        }
      ],
      "stateMutability": "view",
      "type": "function"
    }
  ],
  "bytecode": "0x608060405234801561001057600080fd5b50610f8c806100206000396000f3fe608060405234801561001057600080fd5b50600436106100415760003560e01c80631b9e16ad146100465780635e5c06e2146100685780639141f38b1461009c575b600080fd5b61004e6100b8565b60405161005f95949392919061091d565b60405180910390f35b610082600480360381019061007d9190610a05565b6104d2565b60405161009395949392919061091d565b60405180910390f35b6100b660048036038101906100b19190610b67565b6107b0565b005b60608060608060606000803373ffffffffffffffffffffffffffffffffffffffff1673ffffffffffffffffffffffffffffffffffffffff1681526020019081526020016000206000016000803373ffffffffffffffffffffffffffffffffffffffff1673ffffffffffffffffffffffffffffffffffffffff1681526020019081526020016000206001016000803373ffffffffffffffffffffffffffffffffffffffff1673ffffffffffffffffffffffffffffffffffffffff1681526020019081526020016000206002016000803373ffffffffffffffffffffffffffffffffffffffff1673ffffffffffffffffffffffffffffffffffffffff1681526020019081526020016000206003016000803373ffffffffffffffffffffffffffffffffffffffff1673ffffffffffffffffffffffffffffffffffffffff16815260200190815260200160002060040184805461021190610c9d565b80601f016020809104026020016040519081016040528092919081815260200182805461023d90610c9d565b801561028a5780601f1061025f5761010080835404028352916020019161028a565b820191906000526020600020905b81548152906001019060200180831161026d57829003601f168201915b5050505050945083805461029d90610c9d565b80601f01602080910402602001604051908101604052809291908181526020018280546102c990610c9d565b80156103165780601f106102eb57610100808354040283529160200191610316565b820191906000526020600020905b8154815290600101906020018083116102f957829003601f168201915b5050505050935082805461032990610c9d565b80601f016020809104026020016040519081016040528092919081815260200182805461035590610c9d565b80156103a25780601f10610377576101008083540402835291602001916103a2565b820191906000526020600020905b81548152906001019060200180831161038557829003601f168201915b505050505092508180546103b590610c9d565b80601f01602080910402602001604051908101604052809291908181526020018280546103e190610c9d565b801561042e5780601f106104035761010080835404028352916020019161042e565b820191906000526020600020905b81548152906001019060200180831161041157829003601f168201915b5050505050915080805461044190610c9d565b80601f016020809104026020016040519081016040528092919081815260200182805461046d90610c9d565b80156104ba5780601f1061048f576101008083540402835291602001916104ba565b820191906000526020600020905b81548152906001019060200180831161049d57829003601f168201915b50505050509050945094509450945094509091929394565b60006020528060005260406000206000915090508060000180546104f590610c9d565b80601f016020809104026020016040519081016040528092919081815260200182805461052190610c9d565b801561056e5780601f106105435761010080835404028352916020019161056e565b820191906000526020600020905b81548152906001019060200180831161055157829003601f168201915b50505050509080600101805461058390610c9d565b80601f01602080910402602001604051908101604052809291908181526020018280546105af90610c9d565b80156105fc5780601f106105d1576101008083540402835291602001916105fc565b820191906000526020600020905b8154815290600101906020018083116105df57829003601f168201915b50505050509080600201805461061190610c9d565b80601f016020809104026020016040519081016040528092919081815260200182805461063d90610c9d565b801561068a5780601f1061065f5761010080835404028352916020019161068a565b820191906000526020600020905b81548152906001019060200180831161066d57829003601f168201915b50505050509080600301805461069f90610c9d565b80601f01602080910402602001604051908101604052809291908181526020018280546106cb90610c9d565b80156107185780601f106106ed57610100808354040283529160200191610718565b820191906000526020600020905b8154815290600101906020018083116106fb57829003601f168201915b50505050509080600401805461072d90610c9d565b80601f016020809104026020016040519081016040528092919081815260200182805461075990610c9d565b80156107a65780601f1061077b576101008083540402835291602001916107a6565b820191906000526020600020905b81548152906001019060200180831161078957829003601f168201915b5050505050905085565b6040518060a00160405280868152602001858152602001848152602001838152602001828152506000803373ffffffffffffffffffffffffffffffffffffffff1673ffffffffffffffffffffffffffffffffffffffff168152602001908152602001600020600082015181600001908161082a9190610e84565b5060208201518160010190816108409190610e84565b5060408201518160020190816108569190610e84565b50606082015181600301908161086c9190610e84565b5060808201518160040190816108829190610e84565b509050505050505050565b600081519050919050565b600082825260208201905092915050565b60005b838110156108c75780820151818401526020810190506108ac565b60008484015250505050565b6000601f19601f8301169050919050565b60006108ef8261088d565b6108f98185610898565b93506109098185602086016108a9565b610912816108d3565b840191505092915050565b600060a082019050818103600083015261093781886108e4565b9050818103602083015261094b81876108e4565b9050818103604083015261095f81866108e4565b9050818103606083015261097381856108e4565b9050818103608083015261098781846108e4565b90509695505050505050565b6000604051905090565b600080fd5b600080fd5b600073ffffffffffffffffffffffffffffffffffffffff82169050919050565b60006109d2826109a7565b9050919050565b6109e2816109c7565b81146109ed57600080fd5b50565b6000813590506109ff816109d9565b92915050565b600060208284031215610a1b57610a1a61099d565b5b6000610a29848285016109f0565b91505092915050565b600080fd5b600080fd5b7f4e487b7100000000000000000000000000000000000000000000000000000000600052604160045260246000fd5b610a74826108d3565b810181811067ffffffffffffffff82111715610a9357610a92610a3c565b5b80604052505050565b6000610aa6610993565b9050610ab28282610a6b565b919050565b600067ffffffffffffffff821115610ad257610ad1610a3c565b5b610adb826108d3565b9050602081019050919050565b82818337600083830152505050565b6000610b0a610b0584610ab7565b610a9c565b905082815260208101848484011115610b2657610b25610a37565b5b610b31848285610ae8565b509392505050565b600082601f830112610b4e57610b4d610a32565b5b8135610b5e848260208601610af7565b91505092915050565b600080600080600060a08688031215610b8357610b8261099d565b5b600086013567ffffffffffffffff811115610ba157610ba06109a2565b5b610bad88828901610b39565b955050602086013567ffffffffffffffff811115610bce57610bcd6109a2565b5b610bda88828901610b39565b945050604086013567ffffffffffffffff811115610bfb57610bfa6109a2565b5b610c0788828901610b39565b935050606086013567ffffffffffffffff811115610c2857610c276109a2565b5b610c3488828901610b39565b925050608086013567ffffffffffffffff811115610c5557610c546109a2565b5b610c6188828901610b39565b9150509295509295909350565b7f4e487b7100000000000000000000000000000000000000000000000000000000600052602260045260246000fd5b60006002820490506001821680610cb557607f821691505b602082108103610cc857610cc7610c6e565b5b50919050565b60008190508160005260206000209050919050565b60006020601f8301049050919050565b600082821b905092915050565b600060088302610d307fffffffffffffffffffffffffffffffffffffffffffffffffffffffffffffffff82610cf3565b610d3a8683610cf3565b95508019841693508086168417925050509392505050565b6000819050919050565b6000819050919050565b6000610d81610d7c610d7784610d52565b610d5c565b610d52565b9050919050565b6000819050919050565b610d9b83610d66565b610daf610da782610d88565b848454610d00565b825550505050565b600090565b610dc4610db7565b610dcf818484610d92565b505050565b5b81811015610df357610de8600082610dbc565b600181019050610dd5565b5050565b601f821115610e3857610e0981610cce565b610e1284610ce3565b81016020851015610e21578190505b610e35610e2d85610ce3565b830182610dd4565b50505b505050565b600082821c905092915050565b6000610e5b60001984600802610e3d565b1980831691505092915050565b6000610e748383610e4a565b9150826002028217905092915050565b610e8d8261088d565b67ffffffffffffffff811115610ea657610ea5610a3c565b5b610eb08254610c9d565b610ebb828285610df7565b600060209050601f831160018114610eee5760008415610edc578287015190505b610ee68582610e68565b865550610f4e565b601f198416610efc86610cce565b60005b82811015610f2457848901518255600182019150602085019450602081019050610eff565b86831015610f415784890151610f3d601f891682610e4a565b8355505b6001600288020188555050505b50505050505056fea26469706673582212203ec14e9af6f997f8e412e9df5db565084f9cdcc30398f87a42ca4e0e227d5d2764736f6c63430008130033",
  "immutableReferences": {},
  "source": "// SPDX-License-Identifier: MIT\r\npragma solidity 0.8.19;\r\n\r\ncontract Faucet {\r\n    struct AccountInfo {\r\n        string name;\r\n        string sex;\r\n        string dateOfBirth;\r\n        string phoneNumber;\r\n        string email;\r\n    }\r\n\r\n    mapping(address => AccountInfo) public accounts;\r\n\r\n    function setAccountInfo(\r\n        string memory _name,\r\n        string memory _sex,\r\n        string memory _dateOfBirth,\r\n        string memory _phoneNumber,\r\n        string memory _email\r\n    ) public {\r\n        accounts[msg.sender] = AccountInfo(\r\n            _name,\r\n            _sex,\r\n            _dateOfBirth,\r\n            _phoneNumber,\r\n            _email\r\n        );\r\n    }\r\n\r\n    function getAccountInfo()\r\n        public\r\n        view\r\n        returns (\r\n            string memory,\r\n            string memory,\r\n            string memory,\r\n            string memory,\r\n            string memory\r\n        )\r\n    {\r\n        return (\r\n            accounts[msg.sender].name,\r\n            accounts[msg.sender].sex,\r\n            accounts[msg.sender].dateOfBirth,\r\n            accounts[msg.sender].phoneNumber,\r\n            accounts[msg.sender].email\r\n        );\r\n    }\r\n}\r\n",
  "sourcePath": "E:\\n4-2\\truyen project\\blockchain\\contracts\\Faucet.sol",
  "compiler": {
    "name": "solc",
    "version": "0.8.19+commit.7dd6d404.Emscripten.clang"
  },
  "schemaVersion": "3.4.13",
  "updatedAt": "2023-05-21T13:35:04.654Z",
  "devdoc": {
    "kind": "dev",
    "methods": {},
    "version": 1
  },
  "userdoc": {
    "kind": "user",
    "methods": {},
    "version": 1
  }
}