{
  "contractName": "Faucet",
  "abi": [
    {
      "inputs": [
        {
          "internalType": "address",
          "name": "",
          "type": "address"
        }
      ],
      "name": "accounts",
      "outputs": [
        {
          "internalType": "string",
          "name": "name",
          "type": "string"
        },
        {
          "internalType": "string",
          "name": "sex",
          "type": "string"
        },
        {
          "internalType": "string",
          "name": "dateOfBirth",
          "type": "string"
        },
        {
          "internalType": "string",
          "name": "phoneNumber",
          "type": "string"
        },
        {
          "internalType": "string",
          "name": "email",
          "type": "string"
        },
        {
          "internalType": "bytes32",
          "name": "hashCode",
          "type": "bytes32"
        }
      ],
      "stateMutability": "view",
      "type": "function",
      "constant": true
    },
    {
      "inputs": [
        {
          "internalType": "string",
          "name": "_name",
          "type": "string"
        },
        {
          "internalType": "string",
          "name": "_sex",
          "type": "string"
        },
        {
          "internalType": "string",
          "name": "_dateOfBirth",
          "type": "string"
        },
        {
          "internalType": "string",
          "name": "_phoneNumber",
          "type": "string"
        },
        {
          "internalType": "string",
          "name": "_email",
          "type": "string"
        }
      ],
      "name": "setAccountInfo",
      "outputs": [],
      "stateMutability": "nonpayable",
      "type": "function"
    },
    {
      "inputs": [],
      "name": "getAccountInfo",
      "outputs": [
        {
          "internalType": "string",
          "name": "",
          "type": "string"
        },
        {
          "internalType": "string",
          "name": "",
          "type": "string"
        },
        {
          "internalType": "string",
          "name": "",
          "type": "string"
        },
        {
          "internalType": "string",
          "name": "",
          "type": "string"
        },
        {
          "internalType": "string",
          "name": "",
          "type": "string"
        },
        {
          "internalType": "bytes32",
          "name": "",
          "type": "bytes32"
        }
      ],
      "stateMutability": "view",
      "type": "function",
      "constant": true
    }
  ],
  "bytecode": "0x608060405234801561001057600080fd5b506111d2806100206000396000f3fe608060405234801561001057600080fd5b50600436106100415760003560e01c80631b9e16ad146100465780635e5c06e2146100695780639141f38b1461009e575b600080fd5b61004e6100ba565b60405161006096959493929190610a17565b60405180910390f35b610083600480360381019061007e9190610b0d565b61051b565b60405161009596959493929190610a17565b60405180910390f35b6100b860048036038101906100b39190610c6f565b6107ff565b005b606080606080606060008060003373ffffffffffffffffffffffffffffffffffffffff1673ffffffffffffffffffffffffffffffffffffffff1681526020019081526020016000206000016000803373ffffffffffffffffffffffffffffffffffffffff1673ffffffffffffffffffffffffffffffffffffffff1681526020019081526020016000206001016000803373ffffffffffffffffffffffffffffffffffffffff1673ffffffffffffffffffffffffffffffffffffffff1681526020019081526020016000206002016000803373ffffffffffffffffffffffffffffffffffffffff1673ffffffffffffffffffffffffffffffffffffffff1681526020019081526020016000206003016000803373ffffffffffffffffffffffffffffffffffffffff1673ffffffffffffffffffffffffffffffffffffffff1681526020019081526020016000206004016000803373ffffffffffffffffffffffffffffffffffffffff1673ffffffffffffffffffffffffffffffffffffffff1681526020019081526020016000206005015485805461025790610da5565b80601f016020809104026020016040519081016040528092919081815260200182805461028390610da5565b80156102d05780601f106102a5576101008083540402835291602001916102d0565b820191906000526020600020905b8154815290600101906020018083116102b357829003601f168201915b505050505095508480546102e390610da5565b80601f016020809104026020016040519081016040528092919081815260200182805461030f90610da5565b801561035c5780601f106103315761010080835404028352916020019161035c565b820191906000526020600020905b81548152906001019060200180831161033f57829003601f168201915b5050505050945083805461036f90610da5565b80601f016020809104026020016040519081016040528092919081815260200182805461039b90610da5565b80156103e85780601f106103bd576101008083540402835291602001916103e8565b820191906000526020600020905b8154815290600101906020018083116103cb57829003601f168201915b505050505093508280546103fb90610da5565b80601f016020809104026020016040519081016040528092919081815260200182805461042790610da5565b80156104745780601f1061044957610100808354040283529160200191610474565b820191906000526020600020905b81548152906001019060200180831161045757829003601f168201915b5050505050925081805461048790610da5565b80601f01602080910402602001604051908101604052809291908181526020018280546104b390610da5565b80156105005780601f106104d557610100808354040283529160200191610500565b820191906000526020600020905b8154815290600101906020018083116104e357829003601f168201915b50505050509150955095509550955095509550909192939495565b600060205280600052604060002060009150905080600001805461053e90610da5565b80601f016020809104026020016040519081016040528092919081815260200182805461056a90610da5565b80156105b75780601f1061058c576101008083540402835291602001916105b7565b820191906000526020600020905b81548152906001019060200180831161059a57829003601f168201915b5050505050908060010180546105cc90610da5565b80601f01602080910402602001604051908101604052809291908181526020018280546105f890610da5565b80156106455780601f1061061a57610100808354040283529160200191610645565b820191906000526020600020905b81548152906001019060200180831161062857829003601f168201915b50505050509080600201805461065a90610da5565b80601f016020809104026020016040519081016040528092919081815260200182805461068690610da5565b80156106d35780601f106106a8576101008083540402835291602001916106d3565b820191906000526020600020905b8154815290600101906020018083116106b657829003601f168201915b5050505050908060030180546106e890610da5565b80601f016020809104026020016040519081016040528092919081815260200182805461071490610da5565b80156107615780601f1061073657610100808354040283529160200191610761565b820191906000526020600020905b81548152906001019060200180831161074457829003601f168201915b50505050509080600401805461077690610da5565b80601f01602080910402602001604051908101604052809291908181526020018280546107a290610da5565b80156107ef5780601f106107c4576101008083540402835291602001916107ef565b820191906000526020600020905b8154815290600101906020018083116107d257829003601f168201915b5050505050908060050154905086565b6000858585858560405160200161081a959493929190610e12565b6040516020818303038152906040529050600060028260405161083d9190610ea4565b602060405180830381855afa15801561085a573d6000803e3d6000fd5b5050506040513d601f19601f8201168201806040525081019061087d9190610ee7565b90506040518060c00160405280888152602001878152602001868152602001858152602001848152602001828152506000803373ffffffffffffffffffffffffffffffffffffffff1673ffffffffffffffffffffffffffffffffffffffff16815260200190815260200160002060008201518160000190816108ff91906110ca565b50602082015181600101908161091591906110ca565b50604082015181600201908161092b91906110ca565b50606082015181600301908161094191906110ca565b50608082015181600401908161095791906110ca565b5060a0820151816005015590505050505050505050565b600081519050919050565b600082825260208201905092915050565b60005b838110156109a857808201518184015260208101905061098d565b60008484015250505050565b6000601f19601f8301169050919050565b60006109d08261096e565b6109da8185610979565b93506109ea81856020860161098a565b6109f3816109b4565b840191505092915050565b6000819050919050565b610a11816109fe565b82525050565b600060c0820190508181036000830152610a3181896109c5565b90508181036020830152610a4581886109c5565b90508181036040830152610a5981876109c5565b90508181036060830152610a6d81866109c5565b90508181036080830152610a8181856109c5565b9050610a9060a0830184610a08565b979650505050505050565b6000604051905090565b600080fd5b600080fd5b600073ffffffffffffffffffffffffffffffffffffffff82169050919050565b6000610ada82610aaf565b9050919050565b610aea81610acf565b8114610af557600080fd5b50565b600081359050610b0781610ae1565b92915050565b600060208284031215610b2357610b22610aa5565b5b6000610b3184828501610af8565b91505092915050565b600080fd5b600080fd5b7f4e487b7100000000000000000000000000000000000000000000000000000000600052604160045260246000fd5b610b7c826109b4565b810181811067ffffffffffffffff82111715610b9b57610b9a610b44565b5b80604052505050565b6000610bae610a9b565b9050610bba8282610b73565b919050565b600067ffffffffffffffff821115610bda57610bd9610b44565b5b610be3826109b4565b9050602081019050919050565b82818337600083830152505050565b6000610c12610c0d84610bbf565b610ba4565b905082815260208101848484011115610c2e57610c2d610b3f565b5b610c39848285610bf0565b509392505050565b600082601f830112610c5657610c55610b3a565b5b8135610c66848260208601610bff565b91505092915050565b600080600080600060a08688031215610c8b57610c8a610aa5565b5b600086013567ffffffffffffffff811115610ca957610ca8610aaa565b5b610cb588828901610c41565b955050602086013567ffffffffffffffff811115610cd657610cd5610aaa565b5b610ce288828901610c41565b945050604086013567ffffffffffffffff811115610d0357610d02610aaa565b5b610d0f88828901610c41565b935050606086013567ffffffffffffffff811115610d3057610d2f610aaa565b5b610d3c88828901610c41565b925050608086013567ffffffffffffffff811115610d5d57610d5c610aaa565b5b610d6988828901610c41565b9150509295509295909350565b7f4e487b7100000000000000000000000000000000000000000000000000000000600052602260045260246000fd5b60006002820490506001821680610dbd57607f821691505b602082108103610dd057610dcf610d76565b5b50919050565b600081905092915050565b6000610dec8261096e565b610df68185610dd6565b9350610e0681856020860161098a565b80840191505092915050565b6000610e1e8288610de1565b9150610e2a8287610de1565b9150610e368286610de1565b9150610e428285610de1565b9150610e4e8284610de1565b91508190509695505050505050565b600081519050919050565b600081905092915050565b6000610e7e82610e5d565b610e888185610e68565b9350610e9881856020860161098a565b80840191505092915050565b6000610eb08284610e73565b915081905092915050565b610ec4816109fe565b8114610ecf57600080fd5b50565b600081519050610ee181610ebb565b92915050565b600060208284031215610efd57610efc610aa5565b5b6000610f0b84828501610ed2565b91505092915050565b60008190508160005260206000209050919050565b60006020601f8301049050919050565b600082821b905092915050565b600060088302610f767fffffffffffffffffffffffffffffffffffffffffffffffffffffffffffffffff82610f39565b610f808683610f39565b95508019841693508086168417925050509392505050565b6000819050919050565b6000819050919050565b6000610fc7610fc2610fbd84610f98565b610fa2565b610f98565b9050919050565b6000819050919050565b610fe183610fac565b610ff5610fed82610fce565b848454610f46565b825550505050565b600090565b61100a610ffd565b611015818484610fd8565b505050565b5b818110156110395761102e600082611002565b60018101905061101b565b5050565b601f82111561107e5761104f81610f14565b61105884610f29565b81016020851015611067578190505b61107b61107385610f29565b83018261101a565b50505b505050565b600082821c905092915050565b60006110a160001984600802611083565b1980831691505092915050565b60006110ba8383611090565b9150826002028217905092915050565b6110d38261096e565b67ffffffffffffffff8111156110ec576110eb610b44565b5b6110f68254610da5565b61110182828561103d565b600060209050601f8311600181146111345760008415611122578287015190505b61112c85826110ae565b865550611194565b601f19841661114286610f14565b60005b8281101561116a57848901518255600182019150602085019450602081019050611145565b868310156111875784890151611183601f891682611090565b8355505b6001600288020188555050505b50505050505056fea264697066735822122087a763b7f941420c158158ad113e98b0d8919917b4a413b3086773eff445cd6864736f6c63430008130033",
  "immutableReferences": {},
  "source": "// SPDX-License-Identifier: MIT\r\npragma solidity 0.8.19;\r\n\r\ncontract Faucet {\r\n    struct AccountInfo {\r\n        string name;\r\n        string sex;\r\n        string dateOfBirth;\r\n        string phoneNumber;\r\n        string email;\r\n        bytes32 hashCode;\r\n    }\r\n\r\n    mapping(address => AccountInfo) public accounts;\r\n\r\n    function setAccountInfo(\r\n        string memory _name,\r\n        string memory _sex,\r\n        string memory _dateOfBirth,\r\n        string memory _phoneNumber,\r\n        string memory _email\r\n    ) public {\r\n        string memory stringCode = string(\r\n            abi.encodePacked(_name, _sex, _dateOfBirth, _phoneNumber, _email)\r\n        );\r\n        bytes32 _hashCode = sha256(bytes(stringCode));\r\n        accounts[msg.sender] = AccountInfo(\r\n            _name,\r\n            _sex,\r\n            _dateOfBirth,\r\n            _phoneNumber,\r\n            _email,\r\n            _hashCode\r\n        );\r\n    }\r\n\r\n    function getAccountInfo()\r\n        public\r\n        view\r\n        returns (\r\n            string memory,\r\n            string memory,\r\n            string memory,\r\n            string memory,\r\n            string memory,\r\n            bytes32\r\n        )\r\n    {\r\n        return (\r\n            accounts[msg.sender].name,\r\n            accounts[msg.sender].sex,\r\n            accounts[msg.sender].dateOfBirth,\r\n            accounts[msg.sender].phoneNumber,\r\n            accounts[msg.sender].email,\r\n            accounts[msg.sender].hashCode\r\n        );\r\n    }\r\n}\r\n",
  "sourcePath": "D:\\Documents\\GraduateProject\\Login\\eth\\contracts\\Faucet.sol",
  "compiler": {
    "name": "solc",
    "version": "0.8.19+commit.7dd6d404.Emscripten.clang"
  },
  "schemaVersion": "3.4.13",
  "updatedAt": "2023-04-22T04:13:43.900Z",
  "networkType": "ethereum",
  "devdoc": {
    "kind": "dev",
    "methods": {},
    "version": 1
  },
  "userdoc": {
    "kind": "user",
    "methods": {},
    "version": 1
  }
}